{
	"data": {
		"bytecode": {
			"linkReferences": {},
			"object": "608060405234801561001057600080fd5b50600060018190555033600360006101000a81548173ffffffffffffffffffffffffffffffffffffffff021916908373ffffffffffffffffffffffffffffffffffffffff160217905550600060028190555060016000806101000a81548160ff0219169083151502179055506108a88061008b6000396000f3fe60806040526004361061004a5760003560e01c8063320d7c851461004f5780634b29c448146100595780639aeb5d4814610082578063f2777e55146100ad578063f58754f8146100d8575b600080fd5b610057610101565b005b34801561006557600080fd5b50610080600480360381019061007b9190610408565b610245565b005b34801561008e57600080fd5b506100976102df565b6040516100a49190610593565b60405180910390f35b3480156100b957600080fd5b506100c26102fb565b6040516100cf9190610593565b60405180910390f35b3480156100e457600080fd5b506100ff60048036038101906100fa91906103db565b610305565b005b60008054906101000a900460ff1661014e576040517f08c379a000000000000000000000000000000000000000000000000000000000815260040161014590610533565b60405180910390fd5b60015460025410610194576040517f08c379a000000000000000000000000000000000000000000000000000000000815260040161018b90610513565b60405180910390fd5b60003414156101d8576040517f08c379a00000000000000000000000000000000000000000000000000000000081526004016101cf90610573565b60405180910390fd5b600154346002546101e991906105bf565b111561022a576040517f08c379a000000000000000000000000000000000000000000000000000000000815260040161022190610553565b60405180910390fd5b346002600082825461023c91906105bf565b92505081905550565b600360009054906101000a900473ffffffffffffffffffffffffffffffffffffffff1673ffffffffffffffffffffffffffffffffffffffff163373ffffffffffffffffffffffffffffffffffffffff16146102d5576040517f08c379a00000000000000000000000000000000000000000000000000000000081526004016102cc906104f3565b60405180910390fd5b8060018190555050565b6000806002546001546102f29190610615565b90508091505090565b6000600154905090565b600360009054906101000a900473ffffffffffffffffffffffffffffffffffffffff1673ffffffffffffffffffffffffffffffffffffffff163373ffffffffffffffffffffffffffffffffffffffff1614610395576040517f08c379a000000000000000000000000000000000000000000000000000000000815260040161038c906104f3565b60405180910390fd5b806000806101000a81548160ff02191690831515021790555050565b6000813590506103c081610844565b92915050565b6000813590506103d58161085b565b92915050565b6000602082840312156103f1576103f061068e565b5b60006103ff848285016103b1565b91505092915050565b60006020828403121561041e5761041d61068e565b5b600061042c848285016103c6565b91505092915050565b6000610442603f836105ae565b915061044d82610693565b604082019050919050565b6000610465603f836105ae565b9150610470826106e2565b604082019050919050565b60006104886042836105ae565b915061049382610731565b606082019050919050565b60006104ab603d836105ae565b91506104b6826107a6565b604082019050919050565b60006104ce6037836105ae565b91506104d9826107f5565b604082019050919050565b6104ed81610655565b82525050565b6000602082019050818103600083015261050c81610435565b9050919050565b6000602082019050818103600083015261052c81610458565b9050919050565b6000602082019050818103600083015261054c8161047b565b9050919050565b6000602082019050818103600083015261056c8161049e565b9050919050565b6000602082019050818103600083015261058c816104c1565b9050919050565b60006020820190506105a860008301846104e4565b92915050565b600082825260208201905092915050565b60006105ca82610655565b91506105d583610655565b9250827fffffffffffffffffffffffffffffffffffffffffffffffffffffffffffffffff0382111561060a5761060961065f565b5b828201905092915050565b600061062082610655565b915061062b83610655565b92508282101561063e5761063d61065f565b5b828203905092915050565b60008115159050919050565b6000819050919050565b7f4e487b7100000000000000000000000000000000000000000000000000000000600052601160045260246000fd5b600080fd5b7f596f75206e65656420746f2062652074686865206f776e65722066726f6d207460008201527f68697320636f6e747261637420746f206368616e67652074686520676f616c00602082015250565b7f476f616c20616c726561647920616368696576656420736f20796f752061726560008201527f20206e6f742061626c6520746f2066756e64207468697320616e796d6f726500602082015250565b7f4f776e657220686173206465636964656420746f2073746f702074686973206660008201527f756e6472616973696e6720666f722061207768696c652e20537461792074756e60208201527f6564000000000000000000000000000000000000000000000000000000000000604082015250565b7f756e61626c6520746f20616464206d6f72652066756e64732c20636865636b2060008201527f616d6f756e742072656d61696e696e6720666f72206f757220676f616c000000602082015250565b7f506c656173652061646420736f6d652066756e647320746f2020636f6e74726960008201527f627569746520746f20506c61747a692070726f6a656374000000000000000000602082015250565b61084d81610649565b811461085857600080fd5b50565b61086481610655565b811461086f57600080fd5b5056fea264697066735822122077b9c613526f9caba856309ba4c1f47e02e9e9b649faac34e85b7ec4049b1bdf64736f6c63430008060033",
			"opcodes": "PUSH1 0x80 PUSH1 0x40 MSTORE CALLVALUE DUP1 ISZERO PUSH2 0x10 JUMPI PUSH1 0x0 DUP1 REVERT JUMPDEST POP PUSH1 0x0 PUSH1 0x1 DUP2 SWAP1 SSTORE POP CALLER PUSH1 0x3 PUSH1 0x0 PUSH2 0x100 EXP DUP2 SLOAD DUP2 PUSH20 0xFFFFFFFFFFFFFFFFFFFFFFFFFFFFFFFFFFFFFFFF MUL NOT AND SWAP1 DUP4 PUSH20 0xFFFFFFFFFFFFFFFFFFFFFFFFFFFFFFFFFFFFFFFF AND MUL OR SWAP1 SSTORE POP PUSH1 0x0 PUSH1 0x2 DUP2 SWAP1 SSTORE POP PUSH1 0x1 PUSH1 0x0 DUP1 PUSH2 0x100 EXP DUP2 SLOAD DUP2 PUSH1 0xFF MUL NOT AND SWAP1 DUP4 ISZERO ISZERO MUL OR SWAP1 SSTORE POP PUSH2 0x8A8 DUP1 PUSH2 0x8B PUSH1 0x0 CODECOPY PUSH1 0x0 RETURN INVALID PUSH1 0x80 PUSH1 0x40 MSTORE PUSH1 0x4 CALLDATASIZE LT PUSH2 0x4A JUMPI PUSH1 0x0 CALLDATALOAD PUSH1 0xE0 SHR DUP1 PUSH4 0x320D7C85 EQ PUSH2 0x4F JUMPI DUP1 PUSH4 0x4B29C448 EQ PUSH2 0x59 JUMPI DUP1 PUSH4 0x9AEB5D48 EQ PUSH2 0x82 JUMPI DUP1 PUSH4 0xF2777E55 EQ PUSH2 0xAD JUMPI DUP1 PUSH4 0xF58754F8 EQ PUSH2 0xD8 JUMPI JUMPDEST PUSH1 0x0 DUP1 REVERT JUMPDEST PUSH2 0x57 PUSH2 0x101 JUMP JUMPDEST STOP JUMPDEST CALLVALUE DUP1 ISZERO PUSH2 0x65 JUMPI PUSH1 0x0 DUP1 REVERT JUMPDEST POP PUSH2 0x80 PUSH1 0x4 DUP1 CALLDATASIZE SUB DUP2 ADD SWAP1 PUSH2 0x7B SWAP2 SWAP1 PUSH2 0x408 JUMP JUMPDEST PUSH2 0x245 JUMP JUMPDEST STOP JUMPDEST CALLVALUE DUP1 ISZERO PUSH2 0x8E JUMPI PUSH1 0x0 DUP1 REVERT JUMPDEST POP PUSH2 0x97 PUSH2 0x2DF JUMP JUMPDEST PUSH1 0x40 MLOAD PUSH2 0xA4 SWAP2 SWAP1 PUSH2 0x593 JUMP JUMPDEST PUSH1 0x40 MLOAD DUP1 SWAP2 SUB SWAP1 RETURN JUMPDEST CALLVALUE DUP1 ISZERO PUSH2 0xB9 JUMPI PUSH1 0x0 DUP1 REVERT JUMPDEST POP PUSH2 0xC2 PUSH2 0x2FB JUMP JUMPDEST PUSH1 0x40 MLOAD PUSH2 0xCF SWAP2 SWAP1 PUSH2 0x593 JUMP JUMPDEST PUSH1 0x40 MLOAD DUP1 SWAP2 SUB SWAP1 RETURN JUMPDEST CALLVALUE DUP1 ISZERO PUSH2 0xE4 JUMPI PUSH1 0x0 DUP1 REVERT JUMPDEST POP PUSH2 0xFF PUSH1 0x4 DUP1 CALLDATASIZE SUB DUP2 ADD SWAP1 PUSH2 0xFA SWAP2 SWAP1 PUSH2 0x3DB JUMP JUMPDEST PUSH2 0x305 JUMP JUMPDEST STOP JUMPDEST PUSH1 0x0 DUP1 SLOAD SWAP1 PUSH2 0x100 EXP SWAP1 DIV PUSH1 0xFF AND PUSH2 0x14E JUMPI PUSH1 0x40 MLOAD PUSH32 0x8C379A000000000000000000000000000000000000000000000000000000000 DUP2 MSTORE PUSH1 0x4 ADD PUSH2 0x145 SWAP1 PUSH2 0x533 JUMP JUMPDEST PUSH1 0x40 MLOAD DUP1 SWAP2 SUB SWAP1 REVERT JUMPDEST PUSH1 0x1 SLOAD PUSH1 0x2 SLOAD LT PUSH2 0x194 JUMPI PUSH1 0x40 MLOAD PUSH32 0x8C379A000000000000000000000000000000000000000000000000000000000 DUP2 MSTORE PUSH1 0x4 ADD PUSH2 0x18B SWAP1 PUSH2 0x513 JUMP JUMPDEST PUSH1 0x40 MLOAD DUP1 SWAP2 SUB SWAP1 REVERT JUMPDEST PUSH1 0x0 CALLVALUE EQ ISZERO PUSH2 0x1D8 JUMPI PUSH1 0x40 MLOAD PUSH32 0x8C379A000000000000000000000000000000000000000000000000000000000 DUP2 MSTORE PUSH1 0x4 ADD PUSH2 0x1CF SWAP1 PUSH2 0x573 JUMP JUMPDEST PUSH1 0x40 MLOAD DUP1 SWAP2 SUB SWAP1 REVERT JUMPDEST PUSH1 0x1 SLOAD CALLVALUE PUSH1 0x2 SLOAD PUSH2 0x1E9 SWAP2 SWAP1 PUSH2 0x5BF JUMP JUMPDEST GT ISZERO PUSH2 0x22A JUMPI PUSH1 0x40 MLOAD PUSH32 0x8C379A000000000000000000000000000000000000000000000000000000000 DUP2 MSTORE PUSH1 0x4 ADD PUSH2 0x221 SWAP1 PUSH2 0x553 JUMP JUMPDEST PUSH1 0x40 MLOAD DUP1 SWAP2 SUB SWAP1 REVERT JUMPDEST CALLVALUE PUSH1 0x2 PUSH1 0x0 DUP3 DUP3 SLOAD PUSH2 0x23C SWAP2 SWAP1 PUSH2 0x5BF JUMP JUMPDEST SWAP3 POP POP DUP2 SWAP1 SSTORE POP JUMP JUMPDEST PUSH1 0x3 PUSH1 0x0 SWAP1 SLOAD SWAP1 PUSH2 0x100 EXP SWAP1 DIV PUSH20 0xFFFFFFFFFFFFFFFFFFFFFFFFFFFFFFFFFFFFFFFF AND PUSH20 0xFFFFFFFFFFFFFFFFFFFFFFFFFFFFFFFFFFFFFFFF AND CALLER PUSH20 0xFFFFFFFFFFFFFFFFFFFFFFFFFFFFFFFFFFFFFFFF AND EQ PUSH2 0x2D5 JUMPI PUSH1 0x40 MLOAD PUSH32 0x8C379A000000000000000000000000000000000000000000000000000000000 DUP2 MSTORE PUSH1 0x4 ADD PUSH2 0x2CC SWAP1 PUSH2 0x4F3 JUMP JUMPDEST PUSH1 0x40 MLOAD DUP1 SWAP2 SUB SWAP1 REVERT JUMPDEST DUP1 PUSH1 0x1 DUP2 SWAP1 SSTORE POP POP JUMP JUMPDEST PUSH1 0x0 DUP1 PUSH1 0x2 SLOAD PUSH1 0x1 SLOAD PUSH2 0x2F2 SWAP2 SWAP1 PUSH2 0x615 JUMP JUMPDEST SWAP1 POP DUP1 SWAP2 POP POP SWAP1 JUMP JUMPDEST PUSH1 0x0 PUSH1 0x1 SLOAD SWAP1 POP SWAP1 JUMP JUMPDEST PUSH1 0x3 PUSH1 0x0 SWAP1 SLOAD SWAP1 PUSH2 0x100 EXP SWAP1 DIV PUSH20 0xFFFFFFFFFFFFFFFFFFFFFFFFFFFFFFFFFFFFFFFF AND PUSH20 0xFFFFFFFFFFFFFFFFFFFFFFFFFFFFFFFFFFFFFFFF AND CALLER PUSH20 0xFFFFFFFFFFFFFFFFFFFFFFFFFFFFFFFFFFFFFFFF AND EQ PUSH2 0x395 JUMPI PUSH1 0x40 MLOAD PUSH32 0x8C379A000000000000000000000000000000000000000000000000000000000 DUP2 MSTORE PUSH1 0x4 ADD PUSH2 0x38C SWAP1 PUSH2 0x4F3 JUMP JUMPDEST PUSH1 0x40 MLOAD DUP1 SWAP2 SUB SWAP1 REVERT JUMPDEST DUP1 PUSH1 0x0 DUP1 PUSH2 0x100 EXP DUP2 SLOAD DUP2 PUSH1 0xFF MUL NOT AND SWAP1 DUP4 ISZERO ISZERO MUL OR SWAP1 SSTORE POP POP JUMP JUMPDEST PUSH1 0x0 DUP2 CALLDATALOAD SWAP1 POP PUSH2 0x3C0 DUP2 PUSH2 0x844 JUMP JUMPDEST SWAP3 SWAP2 POP POP JUMP JUMPDEST PUSH1 0x0 DUP2 CALLDATALOAD SWAP1 POP PUSH2 0x3D5 DUP2 PUSH2 0x85B JUMP JUMPDEST SWAP3 SWAP2 POP POP JUMP JUMPDEST PUSH1 0x0 PUSH1 0x20 DUP3 DUP5 SUB SLT ISZERO PUSH2 0x3F1 JUMPI PUSH2 0x3F0 PUSH2 0x68E JUMP JUMPDEST JUMPDEST PUSH1 0x0 PUSH2 0x3FF DUP5 DUP3 DUP6 ADD PUSH2 0x3B1 JUMP JUMPDEST SWAP2 POP POP SWAP3 SWAP2 POP POP JUMP JUMPDEST PUSH1 0x0 PUSH1 0x20 DUP3 DUP5 SUB SLT ISZERO PUSH2 0x41E JUMPI PUSH2 0x41D PUSH2 0x68E JUMP JUMPDEST JUMPDEST PUSH1 0x0 PUSH2 0x42C DUP5 DUP3 DUP6 ADD PUSH2 0x3C6 JUMP JUMPDEST SWAP2 POP POP SWAP3 SWAP2 POP POP JUMP JUMPDEST PUSH1 0x0 PUSH2 0x442 PUSH1 0x3F DUP4 PUSH2 0x5AE JUMP JUMPDEST SWAP2 POP PUSH2 0x44D DUP3 PUSH2 0x693 JUMP JUMPDEST PUSH1 0x40 DUP3 ADD SWAP1 POP SWAP2 SWAP1 POP JUMP JUMPDEST PUSH1 0x0 PUSH2 0x465 PUSH1 0x3F DUP4 PUSH2 0x5AE JUMP JUMPDEST SWAP2 POP PUSH2 0x470 DUP3 PUSH2 0x6E2 JUMP JUMPDEST PUSH1 0x40 DUP3 ADD SWAP1 POP SWAP2 SWAP1 POP JUMP JUMPDEST PUSH1 0x0 PUSH2 0x488 PUSH1 0x42 DUP4 PUSH2 0x5AE JUMP JUMPDEST SWAP2 POP PUSH2 0x493 DUP3 PUSH2 0x731 JUMP JUMPDEST PUSH1 0x60 DUP3 ADD SWAP1 POP SWAP2 SWAP1 POP JUMP JUMPDEST PUSH1 0x0 PUSH2 0x4AB PUSH1 0x3D DUP4 PUSH2 0x5AE JUMP JUMPDEST SWAP2 POP PUSH2 0x4B6 DUP3 PUSH2 0x7A6 JUMP JUMPDEST PUSH1 0x40 DUP3 ADD SWAP1 POP SWAP2 SWAP1 POP JUMP JUMPDEST PUSH1 0x0 PUSH2 0x4CE PUSH1 0x37 DUP4 PUSH2 0x5AE JUMP JUMPDEST SWAP2 POP PUSH2 0x4D9 DUP3 PUSH2 0x7F5 JUMP JUMPDEST PUSH1 0x40 DUP3 ADD SWAP1 POP SWAP2 SWAP1 POP JUMP JUMPDEST PUSH2 0x4ED DUP2 PUSH2 0x655 JUMP JUMPDEST DUP3 MSTORE POP POP JUMP JUMPDEST PUSH1 0x0 PUSH1 0x20 DUP3 ADD SWAP1 POP DUP2 DUP2 SUB PUSH1 0x0 DUP4 ADD MSTORE PUSH2 0x50C DUP2 PUSH2 0x435 JUMP JUMPDEST SWAP1 POP SWAP2 SWAP1 POP JUMP JUMPDEST PUSH1 0x0 PUSH1 0x20 DUP3 ADD SWAP1 POP DUP2 DUP2 SUB PUSH1 0x0 DUP4 ADD MSTORE PUSH2 0x52C DUP2 PUSH2 0x458 JUMP JUMPDEST SWAP1 POP SWAP2 SWAP1 POP JUMP JUMPDEST PUSH1 0x0 PUSH1 0x20 DUP3 ADD SWAP1 POP DUP2 DUP2 SUB PUSH1 0x0 DUP4 ADD MSTORE PUSH2 0x54C DUP2 PUSH2 0x47B JUMP JUMPDEST SWAP1 POP SWAP2 SWAP1 POP JUMP JUMPDEST PUSH1 0x0 PUSH1 0x20 DUP3 ADD SWAP1 POP DUP2 DUP2 SUB PUSH1 0x0 DUP4 ADD MSTORE PUSH2 0x56C DUP2 PUSH2 0x49E JUMP JUMPDEST SWAP1 POP SWAP2 SWAP1 POP JUMP JUMPDEST PUSH1 0x0 PUSH1 0x20 DUP3 ADD SWAP1 POP DUP2 DUP2 SUB PUSH1 0x0 DUP4 ADD MSTORE PUSH2 0x58C DUP2 PUSH2 0x4C1 JUMP JUMPDEST SWAP1 POP SWAP2 SWAP1 POP JUMP JUMPDEST PUSH1 0x0 PUSH1 0x20 DUP3 ADD SWAP1 POP PUSH2 0x5A8 PUSH1 0x0 DUP4 ADD DUP5 PUSH2 0x4E4 JUMP JUMPDEST SWAP3 SWAP2 POP POP JUMP JUMPDEST PUSH1 0x0 DUP3 DUP3 MSTORE PUSH1 0x20 DUP3 ADD SWAP1 POP SWAP3 SWAP2 POP POP JUMP JUMPDEST PUSH1 0x0 PUSH2 0x5CA DUP3 PUSH2 0x655 JUMP JUMPDEST SWAP2 POP PUSH2 0x5D5 DUP4 PUSH2 0x655 JUMP JUMPDEST SWAP3 POP DUP3 PUSH32 0xFFFFFFFFFFFFFFFFFFFFFFFFFFFFFFFFFFFFFFFFFFFFFFFFFFFFFFFFFFFFFFFF SUB DUP3 GT ISZERO PUSH2 0x60A JUMPI PUSH2 0x609 PUSH2 0x65F JUMP JUMPDEST JUMPDEST DUP3 DUP3 ADD SWAP1 POP SWAP3 SWAP2 POP POP JUMP JUMPDEST PUSH1 0x0 PUSH2 0x620 DUP3 PUSH2 0x655 JUMP JUMPDEST SWAP2 POP PUSH2 0x62B DUP4 PUSH2 0x655 JUMP JUMPDEST SWAP3 POP DUP3 DUP3 LT ISZERO PUSH2 0x63E JUMPI PUSH2 0x63D PUSH2 0x65F JUMP JUMPDEST JUMPDEST DUP3 DUP3 SUB SWAP1 POP SWAP3 SWAP2 POP POP JUMP JUMPDEST PUSH1 0x0 DUP2 ISZERO ISZERO SWAP1 POP SWAP2 SWAP1 POP JUMP JUMPDEST PUSH1 0x0 DUP2 SWAP1 POP SWAP2 SWAP1 POP JUMP JUMPDEST PUSH32 0x4E487B7100000000000000000000000000000000000000000000000000000000 PUSH1 0x0 MSTORE PUSH1 0x11 PUSH1 0x4 MSTORE PUSH1 0x24 PUSH1 0x0 REVERT JUMPDEST PUSH1 0x0 DUP1 REVERT JUMPDEST PUSH32 0x596F75206E65656420746F2062652074686865206F776E65722066726F6D2074 PUSH1 0x0 DUP3 ADD MSTORE PUSH32 0x68697320636F6E747261637420746F206368616E67652074686520676F616C00 PUSH1 0x20 DUP3 ADD MSTORE POP JUMP JUMPDEST PUSH32 0x476F616C20616C726561647920616368696576656420736F20796F7520617265 PUSH1 0x0 DUP3 ADD MSTORE PUSH32 0x20206E6F742061626C6520746F2066756E64207468697320616E796D6F726500 PUSH1 0x20 DUP3 ADD MSTORE POP JUMP JUMPDEST PUSH32 0x4F776E657220686173206465636964656420746F2073746F7020746869732066 PUSH1 0x0 DUP3 ADD MSTORE PUSH32 0x756E6472616973696E6720666F722061207768696C652E20537461792074756E PUSH1 0x20 DUP3 ADD MSTORE PUSH32 0x6564000000000000000000000000000000000000000000000000000000000000 PUSH1 0x40 DUP3 ADD MSTORE POP JUMP JUMPDEST PUSH32 0x756E61626C6520746F20616464206D6F72652066756E64732C20636865636B20 PUSH1 0x0 DUP3 ADD MSTORE PUSH32 0x616D6F756E742072656D61696E696E6720666F72206F757220676F616C000000 PUSH1 0x20 DUP3 ADD MSTORE POP JUMP JUMPDEST PUSH32 0x506C656173652061646420736F6D652066756E647320746F2020636F6E747269 PUSH1 0x0 DUP3 ADD MSTORE PUSH32 0x627569746520746F20506C61747A692070726F6A656374000000000000000000 PUSH1 0x20 DUP3 ADD MSTORE POP JUMP JUMPDEST PUSH2 0x84D DUP2 PUSH2 0x649 JUMP JUMPDEST DUP2 EQ PUSH2 0x858 JUMPI PUSH1 0x0 DUP1 REVERT JUMPDEST POP JUMP JUMPDEST PUSH2 0x864 DUP2 PUSH2 0x655 JUMP JUMPDEST DUP2 EQ PUSH2 0x86F JUMPI PUSH1 0x0 DUP1 REVERT JUMPDEST POP JUMP INVALID LOG2 PUSH5 0x6970667358 0x22 SLT KECCAK256 PUSH24 0xB9C613526F9CABA856309BA4C1F47E02E9E9B649FAAC34E8 JUMPDEST PUSH31 0xC4049B1BDF64736F6C63430008060033000000000000000000000000000000 "
		},
		"gasEstimates": {
			"creation": {
				"codeDepositCost": "443200",
				"executionCost": "59041",
				"totalCost": "502241"
			},
			"external": {
				"changeProjectState(bool)": "26915",
				"fundproject()": "infinite",
				"setGoal(uint256)": "24690",
				"viewGoal()": "2481",
				"viewRemaining()": "infinite"
			}
		},
		"methodIdentifiers": {
			"changeProjectState(bool)": "f58754f8",
			"fundproject()": "320d7c85",
			"setGoal(uint256)": "4b29c448",
			"viewGoal()": "f2777e55",
			"viewRemaining()": "9aeb5d48"
		}
	},
	"abi": [
		{
			"inputs": [],
			"stateMutability": "nonpayable",
			"type": "constructor"
		},
		{
			"inputs": [
				{
					"internalType": "bool",
					"name": "change",
					"type": "bool"
				}
			],
			"name": "changeProjectState",
			"outputs": [],
			"stateMutability": "nonpayable",
			"type": "function"
		},
		{
			"inputs": [],
			"name": "fundproject",
			"outputs": [],
			"stateMutability": "payable",
			"type": "function"
		},
		{
			"inputs": [
				{
					"internalType": "uint256",
					"name": "goal",
					"type": "uint256"
				}
			],
			"name": "setGoal",
			"outputs": [],
			"stateMutability": "nonpayable",
			"type": "function"
		},
		{
			"inputs": [],
			"name": "viewGoal",
			"outputs": [
				{
					"internalType": "uint256",
					"name": "",
					"type": "uint256"
				}
			],
			"stateMutability": "view",
			"type": "function"
		},
		{
			"inputs": [],
			"name": "viewRemaining",
			"outputs": [
				{
					"internalType": "uint256",
					"name": "",
					"type": "uint256"
				}
			],
			"stateMutability": "view",
			"type": "function"
		}
	]
}